:1000000022C03CC03BC03AC039C038C037C036C03F
:1000100035C034C033C032C031C030C02FC004043A
:100020000404040404040404040404050500050095
:100030000505000500000004BCBC00BC00EDBC00D0
:100040009E0000009E0011241FBECFE5D2E0DEBF5F
:10005000CDBF10E0A0E6B0E0EAE6F2E002C0059015
:100060000D92A036B107D9F720E0A0E6B0E001C0BC
:100070001D92A236B207E1F786D0F5C0C1CF90E954
:1000800090BF9FEF980F9DBD20B79BE0961B922BD2
:1000900090BF811102C080E980BF0895C39A2FEFFD
:1000A00080E792E0215080409040E1F700C00000DE
:1000B000C3982FEF80E792E0215080409040E1F715
:1000C00000C00000C39A2FEF80E792E021508040EB
:1000D0009040E1F700C00000C3982FEF80E792E066
:1000E000215080409040E1F700C000000895CF9279
:1000F000DF92EF92FF920F931F93CF93DF930BE268
:1001000010E00F2EF8E3EF2EF0E0FF2EF02DCEE101
:10011000D0E00F2EF8E3CF2EF0E0DF2EF02DF80127
:100120006491F7018491ABDFFE018491882379F01B
:1001300080E0FFEB2AED30E0F15020403040E1F765
:1001400000C000008F5FFE019491891790F310BEEC
:10015000FFEB2AED30E0F15020403040E1F700C0E5
:1001600000000F5F1F4F8FEFE81AF80A21960C1559
:100170001D05A9F6DF91CF911F910F91FF90EF9090
:10018000DF90CF900895BC9ABB9A8CB580618CBDEE
:1001900016B880B5876080BD85B7877E806185BFD2
:1001A0002FEF39E688E1215030408040E1F700C070
:1001B000000074DF9FEF2CE231E381E0915020409A
:1001C00030408040D9F700C0000086E090E0909376
:1001D0006100809360008BDF9FEF21E13AE791504F
:1001E00020403040E1F700C0000080916000909115
:1001F000610001979093610080936000892B59F70B
:100200008CE291E0909361008093600065E082EB66
:1002100036DF8FEF95EA2EE0815090402040E1F7E5
:1002200000C0000010BE65E085E829DF3FEF83ECE9
:1002300099E0315080409040E1F700C0000010BECE
:10024000809160009091610001979093610080938C
:100250006000892BD9F685B7806285BF889585B700
:0A0260008F7D85BFFFCFF894FFCF1C
:00000001FF
